:0D3AE1002535642E20005B4449525D0A002B
:073B04007B007A00790A2220
:082B04008F3D8E3C8D3B8C3AA5
:102B0C00755101853E52853F53E4F54AF54BF54826
:102B1C00F549780BE6B4020F781C1212F88F478E29
:102B2C00468D458C44800D780AE6FFE48F47F546C8
:102B3C00F545F544853D43853C42853B41853A400E
:102B4C00AF43AE42AD41AC40780EE6F56608E6F513
:102B5C006785516885526985536A1238D98F50E55B
:102B6C00506003022CE0AB51AA52A953AF49AE48B6
:102B7C00123A7B8F4CE54C64E57003022C52E54C09
:102B8C007003022C52E549240BFFE43548FEAB518F
:102B9C00AA52A953123A7B8F4EE54E540E60030293
:102BAC002C52054BE54B7002054A7BFF7A3A79E1D2
:102BBC00854A63F564121BEEE4F54D7E00E549256C
:102BCC004DFFEE3548FEAB51AA52A953123A7B8FFA
:102BDC004F1239CE054DE54DC3940840DEE54E301D
:102BEC00E430754D087E00E549254DFFEE3548FE75
:102BFC00AB51AA52A953123A7B8F4F1239CE054DC5
:102C0C00E54DC3940B40DE7BFF7A3A79E7121BEE5D
:102C1C0080347F2E1239CE754D087E00E549254D46
:102C2C00FFEE3548FEAB51AA52A953123A7B8F4F97
:102C3C001239CE054DE54DC3940B40DE7F0D123994
:102C4C00CE7F0A1239CE74202549F549E43548F572
:102C5C0048D3E54994FEE5489401406FE5432401CF
:102C6C00F543E43542F542E43541F541E43540F5B0
:102C7C0040C3E543953DFFE542953CFEE541953B60
:102C8C00FDE540953AFCAB47AA46A945A844D312AA
:102C9C00126D4031AF43AE42AD41AC40780EE6F51B
:102CAC006608E6F56785516885526985536A12385E
:102CBC00D98F50E5506007E4F54AF54BF54CE4F537
:102CCC0048F5498006434A80E4F54CE54C60030224
:0D2CDC002B728005E4F54AF54BAE4AAF4B74
:012CE90022C8
:082219008F3D8E3C8D3B8C3A99
:10222100755501854056854157E4F550F551F54EF8
:10223100F54FF54DF54CF54BF54A780BE6B4020F29
:10224100781C1212F88F498E488D478C46800D7884
:102251000AE6FFE48F49F548F547F546853D458592
:102261003C44853B43853A42AF45AE44AD43AC4225
:10227100780EE6F56608E6F5678555688556698541
:10228100576A1238D98F54E5546003022467AB555D
:10229100AA56A957AF4FAE4E123A7B8F52E5526400
:1022A100E570030223D7E55270030223D7E54F24DB
:1022B1000BFFE4354EFEAB55AA56A957123A7B8F58
:1022C10053E553540E60030223D70551E5517002C3
:1022D1000550653F7004E550653E60030223D778E1
:1022E1000BE664047066E54F2415FFE4354EFEAB42
:1022F10055AA56A957123A7BE48F4DF54CF54BF58B
:102301004AAE4CAD4BAC4A78081212918F4D8E4CAF
:102311008D4B8C4AE54F2414FFE4354EFEAB55AA94
:1023210056A957123A7BE4E54D4FF54DE54CF54C76
:10233100E54BF54BE54AF54AAF4DAE4CAD4BFC785C
:10234100081212918F4D8E4C8D4B8C4AE54F241BF8
:10235100FFE4354EFEAB55AA56A957123A7BE4E588
:102361004D4FF54DE54CF54CE54BF54BE54AF54A3E
:10237100AF4DAE4CAD4BFC78081212918F4D8E4C87
:102381008D4B8C4AE54F241AFFE4354EFEAB55AA1E
:1023910056A957123A7BE4E54D4FF54DE54CF54C06
:1023A100E54BF54BE54AF54AE54F240BFFE4354E85
:1023B100FEAB55AA56A957123A7B8F53E55330E429
:1023C10012E54DF54DE54CF54CE54BF54BE54A4431
:1023D10010F54AE4F5527420254FF54FE4354EF5DA
:1023E1004ED3E54F94FEE54E94014071E54524013D
:1023F100F545E43544F544E43543F543E43542F528
:1024010042C3E545953DFFE544953CFEE543953BDB
:10241100FDE542953AFCAB49AA48A947A846D31223
:10242100126D4036AF45AE44AD43AC42780EE6F591
:102431006608E6F56785556885566985576A1238D5
:10244100D98F54E554600CE4F54DF54CF54B754AC4
:1024510080F552E4F54EF54F8003E4F552E5526004
:102461000302228F800AE4F54DF54CF54B754A8045
:10247100E4FFFEFDFCAB4DAA4CA94BA84AC31212C6
:102481006D7009F54DF54CF54B754A80AF4DAE4C6D
:04249100AD4BAC4A59
:012495002224
:103816004C6F636174696E6720426F6F74205365E5
:1038260063746F722E2E2E0A0D0052656C617469D8
:10383600766520536563746F7273203D20256C6432
:103846000A0D004469736B204572726F72210A0D6E
:103856000046415431362044657465637465642EB0
:103866002E2E0A0D0046415433322044657465639A
:093876007465642E2E2E0A0D006B
:093A7200AB5AAA5BA95CE4FFFE5B
:0B3A7B005306018F828E83120FECFFB8
:013A8600221D
:0A3967008E628F638B648A658966A7
:10397100536201E4FDFCE92FF9EA3562FA90000196
:10398100120FECFD7D00FCAA65A9668F828562831A
:09399100120FECFDE4AE04AF05D9
:01399A00220A
:0A36CA008E628F638B648A65896647
:1036D400E4F56AF569F568F567536201F56BAB6467
:1036E400E5662563F9E5653562FAC37403956BFFF6
:1036F400E49400FEE92FF9EA3EFA120FD3FBAF6A15
:10370400AE69AD68AC6778081212918F6A8E698DC4
:10371400688C67AF03E4E56A4FF56AE569F569E526
:1037240068F568E567F567056BE56BB404B0AF6AE7
:06373400AE69AD68AC6750
:01373A00226C
:0413FA008E3A8F3B5D
:1013FE00123B048B5D8A5E895F755A01853A5B8567
:10140E003B5C7BFF7A387916121BEE7566027567A8
:10141E0000855A68855B69855C6A7F007E007D0069
:10142E007C001238D9123A728F59E55964EB604735
:10143E00E55964E96041AB5AAA5BA95C7FC67E019F
:10144E001236CA8F4B8E4A8D498C48756602756767
:10145E0000855A68855B69855C6A1238D97BFF7A8C
:10146E00387930854B66854A6585496485486312AF
:10147E001BEE123A728F59E55964EB6012E559640E
:10148E00E9600C7BFF7A387949121BEE7FF022ABB4
:10149E005AAA5BA95C7F0B7E00123967AB5DAA5E10
:1014AE00A95F900004EE8FF012110D900002E4126D
:1014BE00105E9000041210D5FDACF0ED64014C608E
:1014CE0017AB5DAA5EA95F9000027401121019ECB1
:1014DE00C313FCED13FD80E3AB5AAA5BA95C7F0D31
:1014EE007E00123A7BAB5DAA5EA95FEF12104CAB89
:1014FE005AAA5BA95C7F0E7E001239678E548F55F7
:10150E00AB5AAA5BA95C7F107E00123A7B8F58AB58
:10151E005AAA5BA95C7F117E001239678E568F57CF
:10152E00AB5AAA5BA95C7F137E00123967E48F3F2A
:10153E008E3EF53DF53CFFFEFDFCAB3FAA3EA93DC0
:10154E00A83CC312126D7014AB5AAA5BA95C7F2023
:10155E00FE1236CA8F3F8E3E8D3D8C3CAB5AAA5B37
:10156E00A95C7F167E00123967E48F4F8E4EF54DC3
:10157E00F54CFFFEFDFCAB4FAA4EA94DA84CC31275
:10158E00126D7029AB5AAA5BA95C7F24FE1236CA73
:10159E008F4F8E4E8D4D8C4CAB5AAA5BA95C7F2C17
:1015AE007E001236CA8F538E528D518C50AB5DAA6F
:1015BE005EA95F9000041210D5FDACF024FFFBEC89
:1015CE0034FFFAE557AE567805C333CE33CED8F98D
:1015DE002BFFEA3EFE121080E4FCFDAB5DAA5EA975
:1015EE005F9000121212D4AF58E4FCFDFEAB4FAA6E
:1015FE004EA94DA84C12113AA804A905AA06AB078C
:10160E00E4FCFDEB2555FFEA3554FEED39FDEC38D3
:10161E00FCAB5DAA5EA95F900012121304EF2BFBC8
:10162E00EE3AFAED39F9EC38F8C3E53F9BF543E5B0
:10163E003E9AF542E53D99F541E53C98F540AB5DA6
:10164E00AA5EA95F120FD3FFE4FCFDFEF8F9FAAB18
:10165E0007AF43AE42AD41AC401211C58F478E4627
:10166E008D458C44E4E555254BFFE554354AFEE4A3
:10167E003549FDE43548FCAB5DAA5EA95F90000ECE
:10168E001212D490000E121304C000C001C002C08A
:10169E0003AF58E4FCFDFEAB4FAA4EA94DA84C1269
:1016AE00113AD003D002D001D000EF2BFFEE3AFE5C
:1016BE00ED39FDEC38FCAB5DAA5EA95F900012120D
:1016CE001304EF2BFFEE3AFEED39FDEC38FCAB5D6B
:1016DE00AA5EA95F90000A1212D4E47FF57EFFFD88
:1016EE00FCAB47AA46A945A844C312126D5066AB7F
:1016FE005DAA5EA95F900001740212105E90000355
:10170E00740112105E7BFF7A387957121BEEAB5DB7
:10171E00AA5EA95F90000E121304C000C001C002A1
:10172E00C003AF58E4FCFDFEAB4FAA4EA94DA84C2A
:10173E0012113AD003D002D001D000EF2BFFEE3AB7
:10174E00FEED39FDEC38FCAB5DAA5EA95F9000069C
:10175E001212D48076AB5DAA5EA95F90000174046C
:10176E0012105E900003740212105E7BFF7A3879BD
:10177E006B121BEEE55324FEFFE55234FFFEE551DE
:10178E0034FFFDE55034FFFCA804C005C006C007B9
:10179E00AB5DAA5EA95F120FD3FFE4FCFDFED00382
:1017AE00D002D00112113AAB5DAA5EA95F90000A79
:1017BE00121304EF2BFFEE3AFEED39FDEC38FCABC5
:0D17CE005DAA5EA95F9000061212D47F0094
:0117DB0022EB
:083539008F538E528D518C500E
:10354100123B048B588A59895AE4FFFEFDFCAB53A8
:10355100AA52A951A850C312126D7016AB58AA599C
:10356100A95A9000061212A48F578E568D558C546D
:10357100804FE55324FEFFE55234FFFEE55134FF51
:10358100FDE55034FFFCA804C005C006C007AB58D8
:10359100AA59A95A120FD3FFE4FCFDFED003D002B1
:1035A100D00112113AAB58AA59A95A90000A121324
:1035B10004EF2BF557EE3AF556ED39F555EC38F5A4
:0935C10054AF57AE56AD55AC54A1
:0135CA0022DE
:083021008F538E528D518C502B
:10302900123B048B5F8A608961755C0185545D85FB
:10303900555E900003120FECFF900002120FECC3D3
:103049009FF9AF53AE52AD51AC50F812127EA9613F
:1030590090000E121304EF2BFFEE3AFEED39FDEC52
:1030690038FCAB5FAA60A9619000041210D5F5671E
:1030790085F066855C68855D69855E6A1238D9ABBD
:103089005FAA60A961900003120FECF9AF53AE5229
:10309900AD51AC50F8121291C004C005C006C0076A
:1030A900A9619000041210D524FFFFE5F034FFFE5A
:1030B900E4D003D002D001D000EB5FFFEA5EFEE46A
:1030C9008E5A8F5BAB5FAA60A961900001120FEC69
:1030D900B40419AB5CAA5DA95E1236CAEFF559EEC4
:1030E900F558EDF557EC540FF5568025AB5FAA60FE
:1030F900A961900001120FECB40216AB5CAA5DA99C
:103109005EAF5BAE5A123967E48F598E58F557F5A1
:0931190056AF59AE58AD57AC5643
:01312200228A
:0A33D3008F418D428B438A448945E7
:1033DD00D291D292E4F54720920302349A209103C0
:1033ED0002349A123A9BE54125E0F5465346FEC25A
:1033FD009105427548087F01123A46C2921548AFB1
:10340D0048E546A807088002C313D8FC5401F549C6
:10341D00123A40D2923092FDA291E433F54A6549B9
:10342D006003754781E548D394004004E54760C6C5
:10343D007F01123A46C292D2911542AB43AA44A9DA
:10344D0045120FD3F54674012545F545E43544F590
:10345D00447F01123A46D2923092FDA291E433F5A7
:10346D004A6003754782E542D394004004E5476006
:10347D00827F01123A46C292C2917F01123A46D220
:10348D00923092FD7F02123A46D2918003754781A8
:02349D00AF4737
:01349F00220A
:0A2CEA008F418D428B438A448945D7
:102CF400D291D292E4F547209203022DFC20910355
:102D0400022DFC123A9BE54125E0F546434601C2FB
:102D1400917548087F01123A46C2921548AF48E5BA
:102D240046A807088002C313D8FC5401F549123A97
:102D340040D2923092FDA291E433F54A6549600392
:102D4400754781E548D394004004E54760C67F0198
:102D5400123A46C292D2917F01123A46D2923092EE
:102D6400FDA291E433F54A6003754782E542D394AA
:102D7400004069E54770657548087F01123A46C20C
:102D8400921548D291E54B25E0F54B7F01123A4666
:102D9400D2923092FDA291E433F54A424BE548D3F6
:102DA400940050D6AB43AA44A945E54B12104C7489
:102DB400012545F545E43544F544E542B40105757E
:102DC40049018003E4F5497F01123A46C292E5497C
:102DD400123A40D2923092FD154280907F01123A0D
:102DE40046C292C2917F01123A46D2923092FD7F3E
:0D2DF40002123A46D2918003754781AF4725
:012E010022AE
:103A9B005389F0438901C2A9758CFF758AC3C28D06
:033AAB00D28C2298
:063A400024FF92917F01BA
:103A4600308C03308DFDC28CBF010A758CFF758AE0
:063A5600C3C28DD28C22D8
:1036570049324320546573742050726F6772616DED
:103667000A0D0A0A005344204361726420496E69B7
:103677007469616C697A6174696F6E202E2E2E20D1
:103687000A0D004469726563746F7279205365632C
:10369700746F72203D20256C750A0D00456E7465A8
:1036A700722053656C656374696F6E203D20004915
:1036B7006E76616C69642053656C656374696F6EBF
:0336C7000A0D00E9
:1026E600D2A6D2A5D2A7C2A4C2B3E4F52AF52BAED0
:1026F6002AAF2BE4FCFD7B607AEAF9F8C312125785
:10270600400A052BE52B70E7052A80E3D2A4758ED7
:102716000C758F01123A8712387F7BFF7A3679570C
:10272600121BEE7F807E1A7D067C001235CB8F3021
:10273600E5306004C2A480FE7BFF7A36796C121BFA
:10274600EE121EE88F30E5306004C2A480FE7F00E2
:102756007E2D7D317C011235CB8F30E5306004C291
:10276600A480FEE4F52AF52B7400252BF58274006F
:10277600352AF58374FFF07400252BF58274023533
:102786002AF58374FFF0052BE52B7002052AB400A9
:10279600D7E52AB402D27E007F001213FA8F30E505
:1027A600306004C2A480FE123B049000061212A4FC
:1027B6008F258E248D238C22122496E4F52AF52B60
:1027C600F5397BFF7A36798A8525668524658523E2
:1027D60064852263121BEEAF25AE24AD23AC2275B1
:1027E6003E00753F00122B048E2C8F2D7BFF7A3610
:1027F60079A3121BEE1233008E2E8F2FD3E52F9561
:102806002DE52E952C4003022908AF25AE24AD23D5
:10281600AC22852E3E852F3F754000754100122261
:10282600198F298E288D278C26E4FFFEFDE5265478
:1028360010FC6027E529F529E528F528E527F52781
:10284600E526540FF526AF29AE28AD27FC123539FB
:102856008F258E248D238C220227C1AF25AE24AD71
:1028660023AC227566027567007568017569007587
:102876006A001238D98F307B017A007900AF2BAE0F
:102886002A123A7BEF64016005EF64417046053910
:102896007420252BF52BE4352AF52AE539B52FD7F3
:1028A600E4B52ED3F539AF397E00E52B2539CFEEC9
:1028B600352ACF24FFCF34FFFE7B017A0079001240
:1028C6003A7B74312539F8A6070539E539C39408EA
:1028D60040D4800D7420252BF52BE4352AF52A806B
:1028E60096C200754001123A617B007A0079317F09
:1028F6000C1237A9AF29AE28AD27AC261217DC0279
:0E29060027C17BFF7A3679B6121BEE0227C17D
:10330000E4F53A743C253AF8E4F6053AE53AB40BAC
:10331000F274FFF54AF549F548F547E4F53A123AF3
:10332000C18F3BE53BC394304012E53BD394395009
:103330000B743C253AF8A63B053A8057E53B6408F8
:103340006005E53BB47F15153A743C253AF8E4F680
:103350007F201239CE7F081239CE8037E53B640DCD
:103360006005E53BB40A1D7B007A00793C123222ED
:103370008F4A8E498D488C477F0D1239CE7F0A12B5
:1033800039CE800F7F081239CE7F201239CE7F08C8
:103390001239CEE53AB40A1B7B007A00793C12322E
:1033A000228F4A8E498D488C477F0D1239CE7F0A75
:1033B0001239CE74FFFFFEFDFCAB4AAA49A948A80A
:1033C00047C312126D700302331EAF4AAE49AD48B7
:0233D000AC4708
:0133D20022D8
:103926005374617274696E6720436C757374657243
:10393600203D20256C750A0D005374617274696E02
:103946006720536563746F72203D20256C750A0DE0
:1039560000436C7573746572203D20256C750A0DE5
:013966000060
:0817DC008F3D8E3C8D3B8C3AE1
:1017E400E4F5437BFF7A3979268F668E658D648CA8
:1017F40063121BEEAF3DAE3CAD3BAC3A1235398FB4
:10180400478E468D458C447BFF7A39793F8F668EAF
:10181400658D648C63121BEE85474B85464A85456E
:1018240049854448E4F54FF54EF54DF54CC2A5F510
:101834003EF53FE54B254FFFE54A354EFEE549357C
:101844004DFDE548354CFC75660275670075680109
:10185400756900756A001238D9E54F2401F54FE423
:10186400354EF54EE4354DF54DE4354CF54CD2A5E9
:10187400C2A6E4F540F541750803E54B254FFFE5A5
:101884004A354EFEE549354DFDE548354CFC756657
:1018940002756700756801756902756A001238D9A6
:1018A400E54F2401F54FE4354EF54EE4354DF54D45
:1018B400E4354CF54CD2A674FFFFFEFD7C0FAB3D26
:1018C400AA3CA93BA83AC312126D7003021B8B20D9
:1018D400A003021B8B20A10320A2FDE508B4051779
:1018E400E47F40FEFDFCAB4FAA4EA94DA84CD31299
:1018F400126D4003750806E508B40117E47F40FE45
:10190400FDFCAB4FAA4EA94DA84CD312126D400357
:10191400750802E508B40800509D901925F8282898
:10192400730219490219B90219FA02193D021A700F
:10193400021AE0021B21021A6430B2030218BBE44B
:10194400F5080218BB20B24ED2947400253FF582EC
:101954007400353EF583E0FF7B007A00794212394A
:101964009BC294053FE53F7002053ED394FFE53EDC
:1019740094014022D3E54194FFE54094014014E5ED
:1019840043B40305E4F543800D750801E4F540F51F
:1019940041800375080420B2030218BBD3E54194C7
:1019A400FFE540940150030218BB750801E4F540BB
:1019B400F5410218BBE547254FFFE546354EFEE5E8
:1019C40045354DFDE544354CFC756602756700757B
:1019D4006801756902756A001238D9E54F2401F56A
:1019E4004FE4354EF54EE4354DF54DE4354CF54CAC
:1019F4007508030218BBAF3DAE3CAD3BAC3A755421
:101A0400027555001230218F3D8E3C8D3B8C3A7B04
:101A1400FF7A3979578F668E658D648C63121BEE5D
:101A240074FFFFFEFD7C0FAB3DAA3CA93BA83AC363
:101A340012126D70097543037508030218BBAF3D9C
:101A4400AE3CAD3BAC3A1235398F478E468D458C52
:101A540044E4F54FF54EF54DF54C7508030218BBFB
:101A640030B2030218BB7508040218BB20B24ED270
:101A74009474002541F58274023540F583E0FF7BC0
:101A8400007A00794212399BC2940541E541700203
:101A94000540D394FFE54094014022D3E53F94FFF1
:101AA400E53E94014014E543B40305E4F543800D99
:101AB400750805E4F53EF53F8003E4F50820B2031C
:101AC4000218BBD3E53F94FFE53E9401500302188E
:101AD400BB750805E4F53EF53F0218BBE547254F05
:101AE400FFE546354EFEE545354DFDE544354CFCF8
:101AF400756602756700756801756900756A00127C
:101B040038D9E54F2401F54FE4354EF54EE4354D13
:101B1400F54DE4354CF54C7508070218BBAF3DAEE6
:101B24003CAD3BAC3A7554007555001230218F3DE5
:101B34008E3C8D3B8C3A7BFF7A3979578F668E6564
:101B44008D648C63121BEE74FFFFFEFD7C0FAB3DB6
:101B5400AA3CA93BA83AC312126D700975430375D8
:101B640008070218BBAF3DAE3CAD3BAC3A12353969
:101B74008F478E468D458C44E4F54FF54EF54DF573
:071B84004C7508070218BBB5
:011B8B002237
:0838D9008F658E648D638C6223
:1038E100E4F56B123B0BAB07C290AF65AE64AD6301
:1038F100AC62A8031212918F708E6F8D6E8C6D7FEA
:1039010011122F218F6BE56B700FAB68AA69A96A41
:10391100AF67AE661231238F6BD290E56B60037592
:043921006BF0AF6B2D
:01392500227F
:102914005344204361726420496E697469616C692F
:102924007A6174696F6E202E2E2E200A0D00434D9D
:1029340044302073656E74202E2E2E200052657351
:10294400706F6E7365203D2025322E3262580A0D59
:1029540000434D44382073656E74202E2E2E2000C3
:10296400526573706F6E7365203D200025322E32E0
:102974006258200056657273696F6E20312053448B
:1029840020436172642064657465637465642E0A0F
:102994000D005374616E64617264204361706163FD
:1029A4006974792043617264206465746563746535
:1029B400642E0A0D0056657273696F6E20322053BF
:1029C4004420436172642064657465637465642E95
:1029D4000A0D00434D4435382073656E74202E2E45
:1029E4002E200041434D4434312073656E74202EF3
:1029F4002E2E200048696768204361706163697402
:102A04007920436172642044657465637465640A63
:102A14000D005374616E646172642043617061637C
:102A240069747920436172642044657465637465D4
:102A3400640A0D00434D4431362073656E74202EB4
:102A44002E2E2000526573706F6E7365203D202515
:102A5400322E326258200A0D00426C6F636B207371
:102A6400697A652073657420746F20353132206271
:102A7400797465730A0D0054696D656F757420452A
:102A840072726F7200496C6C6567616C20436F6D84
:102A94006D616E640A0D00526573706F6E7365200C
:102AA4004572726F72004461746120546F6B656E7D
:102AB400204572726F7200496E636F6D7061746944
:102AC400626C6520566F6C74616765004361726463
:102AD40020697320496E61637469766500535049B7
:102AE400206F722054696D656F7574204572726F22
:102AF4007200556E6B6E6F776E204572726F720046
:0D2F1400C290E4F570F56FF56EF56D7F3A33
:022F21008F6CB3
:102F2300E4F572E56CC39440400302301BE56C4446
:102F330040F5717B007A007973FF12399B8F74E53A
:102F430074701CAF70AE6FAD6EAC6D781812127EDC
:102F53008F717B007A00797312399B8F74800375AC
:102F63007287E572702FE574702BE570F570E56F6D
:102F7300F56FE56EF56EE4F56DAF70AE6FAD6EACEB
:102F83006D781012127E8F717B007A00797312397B
:102F93009B8F748003757287E572702DE5747029B9
:102FA300E570F570E56FF56FE4F56EF56DAF70AE36
:102FB3006FAD6EAC6D780812127E8F717B007A0054
:102FC300797312399B8F748003757287E572701859
:102FD300E5747014E570FFE48F71FB7A007973AFC9
:102FE3007112399B8F748003757287E572702CE5BB
:102FF300747028E56C7005757195800DE56CB408E7
:103003000575718780037571017B007A007973AF51
:0D3013007112399B8F748003757282AF7249
:01302000228D
:0734A000FB7A00793D7F017A
:0834A7008F4C8B4D8A4E894FBA
:1034AF00E4F5517B007A0079537FFF12399B8F52DD
:1034BF000550E55330E708E5506004E55260E4E558
:1034CF005260057551878052E550700575518180A6
:1034DF0049AB4DAA4EA94FE55312104CE55360046A
:1034EF0064017033E54CD39401402F755001E550C2
:1034FF00C3954C50257B007A0079537FFF12399B7F
:10350F008F52AB4DAA4EA94F855082758300E5535C
:10351F0012105E055080D77551837B007A00795366
:09352F007FFF12399B8F52AF514E
:013538002270
:0A3123008E6C8F6D8B6E8A6F8970C1
:10312D00E4F574F575F5727B007A0079737FFF1203
:10313D00399B8F710575E57570020574E57330E780
:10314D000AE57545746004E57160DCE5716006752E
:10315D007287023212E575457470067572810232FE
:10316D0012E573600302320FF574F5757B007A007A
:10317D0079737FFF12399B8F710575E575700205A7
:10318D0074E573B4FF0AE57545746004E57160DCA0
:10319D00E5716005757287806CE575457470057510
:1031AD0072818061E57364FE7053F574F575C3E546
:1031BD0075956DE574956C50287B007A0079737F59
:1031CD00FF12399B8F71AB6EAA6FA97085758285C1
:1031DD007483E57312105E0575E57570D105748005
:1031ED00CD7B007A0079737FFF12399B8F717B0045
:1031FD007A0079737FFF12399B8F71800875728405
:10320D0080037572837B007A0079737FFF12399B7F
:04321D008F71AF728C
:01322100228A
:101EE800E4F53B787C76FFD2907BFF7A297914124F
:101EF8001BEEE4F53A7B007A0079457FFF12399BA7
:101F08008F3C053AE53AC3940A40EAC2A77BFF7AB8
:101F1800297932121BEEC290E4F570F56FF56EF573
:101F28006DFF122F218F3CE53C70171234A08F3CB7
:101F3800D290D2A77BFF7A297941853D63121BEEA7
:101F48008006D290D2A7C2A4E53C6002F53BE53BEF
:101F58006003022005C2A77BFF7A297955121BEE80
:101F6800C290E47570AA756F01F56EF56D7F081261
:101F78002F218F3CE53C704BFB7A00793D7F0512A1
:101F880034A78F3CD290D2A77BFF7A297964121BA1
:101F9800EEE4F53A7BFF7A297970743D253AF8E644
:101FA800F563121BEE053AE53AC3940540E67F0D4A
:101FB8001239CE7F0A1239CEE54164AA600B753C0E
:101FC800838006D290D2A7C2A4E53C6023B4821BCA
:101FD800E4F53B787C76097BFF7A297978121BEE49
:101FE8007BFF7A297996121BEE8012853C3B800D87
:101FF800787C76027BFF7A2979B9121BEEE53B7073
:102008006DC2A77BFF7A2979D7121BEE122F148F86
:102018003CE53C704DFB7A00793D7F051234A78F73
:102028003CD290D2A77BFF7A297964121BEEE4F5A3
:102038003A7BFF7A297970743D253AF8E6F5631200
:102048001BEE053AE53AC3940540E67F0D1239CEFA
:102058007F0A1239CEE53F54FC64FC600B753C8561
:102068008006D290D2A7C2A4E53C6002F53BE53BCE
:102078006003022125787CE6B4020CE4F549F548B2
:10208800F5477546408009E4F549F548F547F546B2
:10209800E4F54AF54BC2A77BFF7A2979E7121BEED4
:1020A800C290C2B5E4F570F56FF56EF56D7F371225
:1020B8002F218F3CE53C70051234A08F3CD2B5E54A
:1020C8003D64016004E53D701385497085486F855E
:1020D800476E85466D7F29122F218F3CE53C7003A2
:1020E8001234A0054BE54B7002054A454A7003754A
:1020F8003C81E53D30E004E53C60A7E53C7012D248
:1021080090D2A77BFF7A297941853D63121BEE8027
:1021180006D290D2A7C2A4E53C6002F53BE53B603D
:102128000302220E787CE66402600302220EC2A734
:102138007BFF7A2979D7121BEE122F148F3CE53CCE
:1021480060030221FDFB7A00793D7F051234A78FD9
:102158003CD290D2A77BFF7A297964121BEEE4F572
:102168003A7BFF7A297970743D253AF8E6F56312CF
:102178001BEE053AE53AC3940540E67F0D1239CEC9
:102188007F0A1239CEE53E20E705753C86806CE56E
:102198003E54C0FFBFC00FE4787CF67BFF7A2979F4
:1021A800F8121BEE8055787C76097BFF7A2A79161F
:1021B800121BEEC2A77BFF7A2A7938121BEEC29057
:1021C800E4F570756F02F56EF56D7F10122F218F93
:1021D8003CE53C70261234A08F3CD290D2A77BFFFE
:1021E8007A2A7948853D63121BEE7BFF7A2A795D4E
:1021F800121BEE8006D290D2A7C2A4E53C6007F578
:102208003BAF3B12373BE53B6004FF12373BAF3B2C
:0122180022A3
:053B0B00787CE6FF22BA
:10373B008F4CE54CB481097BFF7A2A797B021BEE17
:10374B00E54CB482097BFF7A2A7989021BEEE54CA2
:10375B00B483097BFF7A2A799B021BEEE54CB48478
:10376B00097BFF7A2A79AA021BEEE54CB485097B0B
:10377B00FF7A2A79BB021BEEE54CB486097BFF7AF4
:10378B002A79D0021BEEE54CB487097BFF7A2A79A4
:0E379B00E1021BEE7BFF7A2A79F6121BEE226A
:1035CB00E4F53AAB07AA06A905A804FF7E407D19CE
:1035DB007C011211C5EFD39402500575C37080693D
:1035EB00EFD39402400BEFD39404500575C3718055
:1035FB0058EFD39404400BEFD39408500575C37266
:10360B008047EFD39408400BEFD39410500575C34C
:10361B00738036EFD39410400BEFD3942050057585
:10362B00C3F08025EFD39420400BEFD3944050058B
:10363B0075C3F18014EFD39440400BEFD3948050BB
:0B364B000575C3F28003753A0FAF3A1B
:013656002251
:10399B00E4FE8FC5AFC40EEF54F07003EE70F5EE7E
:1039AB006017EF54707009E5C512104CE4FE8010DF
:1039BB0074FF12104CE4FE800774FF12104C7E80D3
:0239CB00AF0645
:0139CD0022D7
:102E02004F75747075742066726F6D20494420721C
:102E1200656769737465723A2025322E32625820D2
:102E22000A0D0053544130313320536F6674566596
:102E32007273696F6E3A2025322E326258200A0D63
:102E420000466972737420636F6E6669677572619A
:102E520074696F6E2066696C652073656E742E2EC0
:102E62002E0A0D004E756D626572206F66207661C6
:102E72006C756573207772697474656E3A20256487
:102E8200200A0D0053656E7420746F205354413034
:102E920031333A2025322E326258202025322E320A
:102EA2006258200A0D004F75747075742066726F37
:102EB2006D2072656769737465723A2025322E320D
:102EC2006258202025322E3262582025322E32625C
:102ED20058200A0D00436F6E6669677572617469E6
:102EE2006F6E20436F6D706C6574650A0D005455EA
:102EF200060B525165645061050D180C46487D72EF
:102F020007100902B80000000605A1000405070722
:022F12000001BC
:10249600C2B378767601753B32D2B3C2B47B007A8A
:1024A6000079767D017F431233D38F3AD53B02C242
:1024B600A6E53A6004E53B70E4E53B602E753B32E9
:1024C6007B007A0079797D017F43122CEA8F3A15D9
:1024D6003BE53A6004E53B70E7E53B600E7BFF7A3F
:1024E6002E79027879E6F563121BEED2B47879E696
:1024F60064AC60030226E378767671FB7A0079761F
:102506007D017F431233D38F3A7B007A0079797D40
:10251600017F43122CEA8F3A7BFF7A2E7925787950
:10252600E6F563121BEEE4F53FF540753CFF753D9D
:1025360000753E03AB3CAA3DA93E854082853F839C
:10254600120FEC7876F60540E5407002053FF582FD
:10255600853F83120FEC7877F60540E5407002055B
:102566003F18E6F4601F753B327B007A0079767D72
:10257600027F431233D38F3AD53B02C2A6E53A60B7
:1025860004E53B70E47876E6F46004E53B70A57BF1
:10259600FF7A2E7943121BEE7BFF7A2E7966E53F92
:1025A600C313F563E54013F564121BEEE4F53FF53E
:1025B60040753CFF753D0F753EA1AB3CAA3DA93E5B
:1025C600854082853F83120FEC7876F60540E5401C
:1025D6007002053FF582853F83120FEC7877F6058A
:1025E60040E5407002053F18E6F4601F753B327BFC
:1025F600007A0079767D027F431233D38F3AD53B3A
:1026060002C2A6E53A6004E53B70E47876E6F4603B
:1026160004E53B70A5787676717B007A0079767D45
:10262600017F431233D38F3A7B007A0079797D019B
:102636007F43122CEA8F3A7BFF7A2E79257879E64A
:10264600F563121BEEE4F53FF540AF40EF902EF038
:10265600937876F6EF902F029308F6753B327B005F
:102666007A0079767D027F431233D38F3AD53B02C7
:10267600C2A6E53A6004E53B70E47BFF7A2E7986D4
:102686007876E6F56308E6F564121BEE7B007A00C1
:1026960079767D017F431233D38F3A7B007A0079B6
:1026A600797D017F43122CEA8F3A7BFF7A2E79A837
:1026B6007876E6F5637879E6F564853A65121BEE79
:1026C6000540E5407002053FC39412E53F94005073
:0F26D600030226507BFF7A2E79D7121BEEAF3A04
:0126E50022D2
:103A870053873F759850E4F59B759AC4759B1ED272
:043A970099C2AC2202
:100003003A012A04280029002000210022002300AD
:10001300240025002600270028012802218F280319
:100023002100280428052806280728082809280A63
:10003300280B280C20802190280D20002100280E59
:1000430020812191280F20002192281021002811BE
:1000530021932812210028132814281520822816FA
:1000630020002817281828192194281A2195281BBD
:100073002196281C2100281D2083281E2000281FCC
:1000830021972820210028212822282328242825D5
:100093002826282728282829282A2084282B2000B6
:1000A300282C282D282E282F283028312832208547
:1000B3002833200028342835283628372198283833
:1000C30021002839283A283B283C283D283E283F50
:1000D30028402841284228432844284528462847C1
:1000E30028482849284A284B284C284D284E284F71
:1000F3002850285128522853285428552856285721
:1001030028582859285A285B285C285D285E285FD0
:1001130028602861286221992863210028642865C2
:100123002866286728682869286A286B286C286D40
:10013300286E286F287028712872287328742875F0
:100143002876287728782879287A287B287C287DA0
:10015300287E287F28802881288228832884288550
:100163002886288728882889288A288B288C288D00
:10017300288E288F289028912086289220872893DC
:100183002000289428952896289728982899289A13
:10019300289B289C289D289E289F219A28A02100DF
:1001A30028A128A228A328A428A528A628A728A8E8
:1001B30028A928AA28AB28AC28AD28AE28AF28B098
:1001C30028B128B228B328B428B528B628B728B848
:1001D30028B9208828BA200028BB208928BC200001
:1001E30028BD28BE28BF28C028C128C228C3219BF8
:1001F30028C4210028C528C628C728C828C928CA52
:1002030028CB28CC28CD28CE28CF28D028D128D237
:1002130028D328D428D528D628D728D828D928DAE7
:1002230028DB28DC28DD28DE28DF28E028E1208AF7
:1002330028E2208B28E3200028E428E528E628E7A5
:1002430028E828E928EA28EB28EC28ED28EE28EF0F
:1002530028F028F128F228F328F428F528F628F7BF
:1002630028F8208C28F92000219C28FA219D28FBBE
:10027300208D219E28FC208E219F28FD2000210017
:1002830028FE28FF2A012800220123952489250717
:1002930026A42707280121C72200238026C4270C70
:1002A30028022009211C220426AA270A2803200049
:1002B3002100220023A626A02707280428052005BD
:1002C300238426B42709280620002203230024813F
:1002D30025C026AB270A280721AE220023952489AF
:1002E300250726A42700280821482201238026C4A5
:1002F300270C280920092104220426AA270A280AF0
:1003030020002100220023A826A42707280B280C5D
:1003130021402220238026C4270C280D222426C610
:10032300280E219E220026C8280F2009210222140C
:1003330026AA270A2810200521002200238426B498
:1003430027092811200021012300240125C026AB01
:10035300270A281221C3239524892507262027004D
:100363002813200321C223832626270D281421B313
:0E03730022082815200021C62200239526000E
:1003810027082816210023002496250326AA270AD8
:100391002817204221B62380248925072818200008
:1003A10021002394260E2819200F238426B427091F
:1003B100281A2000239326A82703281B2628270074
:1003C100281C21012300240125C026AB270A281D52
:1003D10021C523952489250726202700281E2100D1
:1003E10023942600270A281F260E2820200321797E
:1003F100220123832626270D2821213228222000AD
:10040100210422002380240025FC26AA270A282370
:10041100210023002500282421A3220D2380249ECE
:10042100253B2825204221572201248925072826FA
:1004310020002143220D2400253828272108229855
:100441002395248925072624270028282042219343
:100451002201238026AA270A28292003217E22049B
:1004610023832626270D282A200021B02200239548
:1004710026A02707282B21002300240C250426AAC7
:10048100270A282C21022380248625C326AB282D68
:100491002042219722012489250726AA282E2000FF
:1004A10021002200241F2504282F21B2239524890D
:1004B10025072620270428302042218B220423806F
:1004C10026AA270A2831200021B12200239526A03F
:1004D1002707283220032175220423832626270D8E
:1004E1002833200521002200238426B4270928343B
:1004F100200021602300240125C026AB270A2835CE
:1005010021082298239524892507262427002836A7
:1005110021BC2200283721A3220D2300240125C05C
:1005210026AB270A283821602200238024002538A1
:1005310026AA2839210622982395248925072624CD
:100541002700283A21BE2200283B200521002384D0
:1005510026B42709283C200021602300240125C05E
:1005610026AB270A283D214222012395248925070C
:1005710026242700283E210C229826A42707283F5D
:1005810021082840216022002300240125C026AB38
:10059100270A2841210C22982395248925072624FE
:1005A10027002842200521002200238426B42709A0
:1005B1002843200023802400251026AB270A284445
:1005C1002122220123952489250726242700284555
:1005D1002100220023002404251226AA270A2846E6
:1005E100200321D422052383248925072626270DCC
:1005F10028472000216022002300240125C026ABCA
:10060100270A284821B3239524892507260027088E
:100611002849210023002409250026AA270A284A5F
:10062100210223802486253B284B204221DD2205FF
:1006310024892507284C200021002200241F2500A1
:10064100284D21B323952489250726202700284EEC
:10065100210023002497250326AA270A284F204298
:1006610021E222052380248925072850200021101A
:1006710022002300248025CC26AB285121002240D2
:1006810023B42489250726AA27042852220023B04F
:100691002692270928532114220123952600270891
:1006A1002854214823A4262A270028552100220066
:1006B10023002409250026AA270A28562108238079
:1006C1002486253B2857204221112207248925070A
:1006D1002858200021002200241F25002859211418
:1006E100220123952489250726202700285A21162F
:0E06F10026022709285B210022002300248016
:1006FF00254826AA270A285C23A024892507261423
:10070F002709285D2480255026A42704285E21165A
:10071F0022012395248925072700285F2104220021
:10072F002300249C257826AA270A28602143220D1E
:10073F00240125C426AB2861210322002415286239
:10074F0021002400250026AA2863215E23952489F1
:10075F00250726102709286421032300241525C403
:10076F0026AB270A2865210023802400250626AA08
:10077F002866248F25E326AB2867204221CD220748
:10078F002489250726AA286820002160220023003B
:10079F00240125C026AB286921002380248F25033F
:1007AF0026AA286A204221DD220724892507286BE3
:1007BF0020002143220D2300240125C026AB286CE5
:1007CF00210022002400250426AA286D2003217F62
:1007DF0022012383248925072626270D286E2162CF
:1007EF00286F200521002200238426B427092870B2
:1007FF0020002106239526002708287121012300B8
:10080F002497253B26AA270A28722042210E220868
:10081F0023802489250728732003213C220B23835F
:10082F002626270D28742000210322002395260257
:10083F002708287521272300248125C426AB270AE2
:10084F002876210023802409254826AA28772158B5
:10085F00223423A324892507262A2700287821005C
:10086F00220023A0260027092879210723802403AB
:10087F00253926AA270A287A21042300241C253883
:10088F00287B2107238024832539287C2103239566
:10089F002489250726022708287D21272300248164
:1008AF0025C426AB270A287E21002380240925484A
:1008BF0026AA287F2158223423A324892507262AF4
:1008CF0027002880210622002300248125C026939B
:1008DF0027012881210023802489254826AA270A59
:1008EF0028822002216622082300240025662883FF
:1008FF002000210022002380241F250228842106A6
:10090F002489250726DC270C2885210023AA26AA5F
:10091F00270A288623B626002708288723802486BF
:10092F00253B26AA270A288821052489250726DCA6
:10093F00270C2889210023AA26AA270A288A23B64A
:10094F0026002708288B23802486253B26AA270AE2
:10095F00288C2042217B220824892507288D2000FE
:10096F0021002200230024012582288E21052481C5
:10097F0025C226AB288F20032193220823832489A5
:10098F0025072626270D2890200021052200230069
:10099F00248125C026132701289121002380248933
:1009AF00254826AA270A28922002217E2208230002
:1009BF002400256628932000210022002380241F75
:1009CF002502289421052489250726DC270C289544
:1009DF00210023AA26AA270A289623B6260027082D
:1009EF00289723802486253B26AA270A28982105A5
:1009FF002489250726DC270C2899210023AA26AA5B
:100A0F00270A289A2380241F2502289B21012300CF
:100A1F00248125C226AB289C2003219322082383FF
:100A2F00248925072626270D289D20002104220032
:100A3F00239526122708289E216023C426AA27045F
:100A4F00289F210023C02600270928A0204221CB60
:100A5F002208238026AA270A28A12070215422B811
:0E0A6F0023952612270828A2200221CC220857
:100A7D00238026AA270A28A3200321CA220F238315
:100A8D002626270D28A42000210022002300248CD7
:100A9D00250C26AA270A28A521042482257828A614
:100AAD0021002380248925482612270428A7200306
:100ABD0021DE220F238325072626270D28A82000B7
:100ACD00210122002300249C257826AA270A28A983
:100ADD00210023802481254028AA200321CF220F25
:100AED002383248925072626270D28AB207021086E
:100AFD0022B8239526A0270428AC200321D4220F49
:100B0D0023832626270D28AD2127220B28AE207002
:100B1D00216322B823952612270828AF2000210132
:100B2D0022002380248625CB26AB270A28B020421D
:100B3D0021DD22082489250726AA28B120002118A5
:100B4D002280239526A4270028B2200321D9220F25
:100B5D0023832626270D28B32070210A22B823953A
:100B6D0026A0270028B4200221E02208238026AAEF
:100B7D00270A28B52070210A22B8239526A0270020
:100B8D0028B621542602270828B7200021182280D4
:100B9D0026A4270028B82100220023802480254880
:100BAD0026AA270A28B92070215E22B82395248908
:100BBD0025072612270828BA2000210022002380AD
:100BCD002409254B26AA270A28BB2070215F22B8AD
:100BDD002395248925072610270828BC20002100ED
:100BED0022002300241C258326AB270A28BD2003C1
:100BFD00213222092383248925072626270D28BE85
:100C0D0020002100220023002482258C26AB270AF8
:100C1D0028BF200321252209238324892507262681
:100C2D00270D28C0204221BC238026AA270A28C1CF
:100C3D002000210122002300240125C026AB28C25B
:100C4D002070210F22B823952489250726202700FF
:100C5D0028C3200321E3220F23832626270D28C432
:100C6D00200521002200238426B4270928C5200051
:100C7D00210323952614270828C621A623A4262A56
:100C8D00270528C7210023A02644270928C8211895
:100C9D00226D2380249E257B26AA270A28C920425F
:100CAD002113220B2489250728CA200021AE2200FA
:100CBD0023952624270028CB210022032380248777
:100CCD00257B26AA270A28CC20422116220B24890F
:100CDD00250728CD200021AE2200239526242700AC
:100CED0028CE20052100238426B4270928CF2003F0
:100CFD00210D220B23832626270D28D0200021002D
:100D0D002200230024802602270028D123802409D5
:100D1D002548261E28D22158223423332480250726
:100D2D00262A28D32100220023002680271028D42C
:100D3D0021102363262A270028D52100236026A809
:100D4D00271228D621AF224C230026C8270C28D7DE
:100D5D00210022002680270528D823802486253BC4
:100D6D00261E270028D92042211C220E2300248074
:100D7D00250728DA20002135222926C4270C28DB57
:100D8D002002211D220E261E270028DC2000217F97
:100D9D00223426C4270C28DD210022002390249F15
:100DAD0025042610270A28DE23002484250026800A
:100DBD00271028DF2106236324802507262A2700F4
:100DCD0028E021002380248926AA270A28E120056E
:100DDD00238426B4270928E22070216122B82395A7
:0E0DED002612270828E320002101220023807F
:100DFB00248625C326AB270A28E4204221CE220FC6
:100E0B002489250726AA28E52070215022B823958E
:100E1B002612270828E6200521002200238426B469
:100E2B00270928E72070216422B82395261227086A
:100E3B0028E82000210122002380248625C326AB2D
:100E4B00270A28E9204221D3220F2489250726AA25
:100E5B0028EA2070215122B823952612270828EB67
:100E6B00200521002200238426B4270928EC2070BA
:100E7B00216522B823952612270828ED2000210191
:100E8B0022002380248625C326AB270A28EE204286
:100E9B0021D8220F2489250726AA28EF207021525A
:100EAB0022B823952612270828F0200521002200BE
:100EBB00238426B4270928F12070216122B82395B9
:100ECB002602270828F220002101220023802486F5
:100EDB0025C326AB270A28F3204221DD220F2489C4
:100EEB00250726AA28F42070215022B82395260224
:100EFB00270828F5200521002200238426B4270982
:100F0B0028F6200021012380248625CB26AB270A37
:100F1B0028F7204221E1220F2489250726AA28F849
:100F2B002000210222002300248125C426AB28F9AE
:100F3B00210023802489254826AA28FA200523840A
:100F4B00250726B4270928FB2070214E22B82395AC
:100F5B002610270828FC200021002200238024864D
:100F6B0025C326AB270A28FD204221E7220F24891F
:100F7B00250726AA28FE200021BB22002395262028
:100F8B00270028FF20052100238426B427092A08DF
:100F9B001001FFFFFFFF3A00643A65BB083A09BB3B
:100FAB0050105267517705A11804540155210700C1
:100FBB00060C0B03501051005204610F645565551C
:080FCB0005A11804FFFFFFFF60
:1039F50053890F438910C2AB758DF4758B3DC28F0A
:103A0500D28E308FFDC28EEF1F70011ED3EF940052
:063A1500EE940050E322D4
:103A1B0053890F438910C2ABE4F58DF58BC28FD25E
:103A2B008E308FFDC28EEF1F70011ED3EF9400EE10
:053A3B00940050E4229C
:053A5C00C200754030BE
:103A6100A20092B6D2B7854080C2B77580FFD2B6A8
:013A71002232
:10387F00123A5C7F0A7E001239F5123A5C7F057EA0
:10388F00001239F5123A5C7F017E001239F5C20041
:10389F00754038123A617F017E001239F5C200750A
:1038AF004048123A617F017E001239F5C20075401F
:1038BF0001123A617F057E001239F5C20075400C86
:0A38CF00123A617F017E000239F514
:0837A9008F3A8B3B8A3C893DFD
:1037B100E53A7033F53E853E82F583120FECF53F15
:1037C100E53F6050D200F540123A617F017E001260
:1037D1003A1B053EAB3BAA3CA93D853E8275830061
:1037E100120FECF53F80D9E4F53EE53EC3953A5022
:1037F10023AB3BAA3CA93D853E82758300120FECA9
:10380100F53FD200F540123A617F017E00123A1B6A
:04381100053E80D61A
:013815002290
:03000000023AEED3
:0C3AEE00787FE4F6D8FD75817C0226E6A6
:100FD300BB010689828A83E0225002E722BBFE021C
:090FE300E32289828A83E493224F
:100FEC00BB010CE58229F582E5833AF583E02250BA
:100FFC0006E92582F8E622BBFE06E92582F8E22204
:0D100C00E58229F582E5833AF583E493221D
:10101900BB010FF8E58229F582E5833AF583E028DB
:10102900F0225009C58229F8E58226F622BBFE097D
:10103900C58229F8E22582F222F8EA2583F583E9B7
:03104900932822C7
:10104C00BB010689828A83F0225002F722BBFE0183
:02105C00F3227D
:10105E00F8BB010DE58229F582E5833AF583E8F0C8
:10106E00225006E92582C8F622BBFE05E92582C874
:02107E00F2225C
:10108000BC000BBE0029EF8DF084FFADF022E4CC54
:10109000F875F008EF2FFFEE33FEEC33FCEE9DEC1D
:1010A000984005FCEE9DFE0FD5F0E9E4CEFD22ED63
:1010B000F8F5F0EE8420D21CFEADF075F008EF2FAD
:1010C000FFED33FD4007985006D5F0F222C398FD9E
:0510D0000FD5F0EA223B
:1010D500BB0110E58229F582E5833AF583E0F5F059
:1010E500A3E0225009E92582F886F008E622BBFE36
:1010F5000AE92582F8E2F5F008E222E5832AF5837C
:08110500E993F5F0A3E9932240
:10110D00F8BB0111E58229F582E5833AF583E8F014
:10111D00E5F0A3F0225009E92582C8F608A6F022D1
:0D112D00BBFE09E92582C8F2E5F008F222B8
:10113A00E88FF0A4CC8BF0A42CFCE98EF0A42CFC54
:10114A008AF0EDA42CFCEA8EF0A4CDA8F08BF0A4D2
:10115A002DCC3825F0FDE98FF0A42CCD35F0FCEB31
:10116A008EF0A4FEA9F0EB8FF0A4CFC5F02ECD39F6
:0F117A00FEE43CFCEAA42DCE35F0FDE43CFC2263
:1011890075F008758200EF2FFFEE33FECD33CDCC1D
:1011990033CCC58233C5829BED9AEC99E5829840A0
:1011A9000CF582EE9BFEED9AFDEC99FC0FD5F0D67D
:1011B900E4CEFBE4CDFAE4CCF9A88222B800C1B9A7
:1011C9000059BA002DEC8BF084CFCECDFCE5F0CBE5
:1011D900F97818EF2FFFEE33FEED33FDEC33FCEB1E
:1011E90033FB10D703994004EB99FB0FD8E5E4F9D9
:1011F900FA227818EF2FFFEE33FEED33FDEC33FCC6
:10120900C933C910D7059BE99A4007EC9BFCE99AB9
:10121900F90FD8E0E4C9FAE4CCFB2275F010EF2FFE
:10122900FFEE33FEED33FDCC33CCC833C810D707FE
:101239009BEC9AE899400AED9BFDEC9AFCE899F839
:0E1249000FD5F0DAE4CDFBE4CCFAE4C8F922CC
:10125700EB9FF5F0EA9E42F0E99D42F0EC6480C80E
:0612670064809845F022AE
:10126D00EB9FF5F0EA9E42F0E99D42F0E89C45F0D7
:01127D00224E
:10127E00E8600FECC313FCED13FDEE13FEEF13FF4E
:03128E00D8F12272
:10129100E8600FEFC333FFEE33FEED33FDEC33FCBB
:0312A100D8F1225F
:1012A400BB010DE58229F582E5833AF583021342F9
:1012B4005007E92582F80212F8BBFE07E92582F8F7
:1012C40002134EE58229F582E5833AF58302135A27
:1012D400BB010DE58229F582E5833AF5830213AC5F
:1012E4005007E92582F80213A0BBFE07E92582F81E
:0412F4000213B82207
:0C12F800E6FC08E6FD08E6FE08E6FF2222
:10130400BB010DE58229F582E5833AF58302137763
:101314005007E92582F802136ABBFE07E92582F823
:10132400021383E58229F582E5833AF5830213905B
:1039CE00EFB40A07740D1239D9740A309811A899F8
:1039DE00B8130CC2983098FDA899C298B811F63059
:0739EE0099FDC299F5992231
:101B8C00E56F2463F8E6056F22786030070278630E
:101B9C00E475F0011213C4020FD32000EB7F2ED298
:101BAC00008018EF540F2490D43440D4FF30040B31
:101BBC00EF24BFB41A0050032461FFE570600215D6
:101BCC00700573E5737002057230070D7860E4756B
:101BDC00F0011213C4EF02104C0239CE7403D20779
:101BEC008003E4C207F56F8B608A618962E4F5704B
:101BFC00F572F573E57060077F20121BC780F575D1
:101C0C0071FFC201C200C202C203C205C206C208F1
:101C1C00121B95FF700D3007057F00121BD8AF7398
:101C2C00AE7222B4255FC2D5C204121B95FF24D01C
:101C3C00B40A00501A75F00A787030D50508B6FF52
:101C4C000106C6A426F620D5047002D20380D9243E
:101C5C00CFB41A00EF5004C2E5D204021DD8D20151
:101C6C0080C6D20080C0D20280BCD2D580BAD20548
:101C7C0080B47F20121BC72002077401B57000408E
:101C8C00F1121B8CFF121BC7021C00D208D206805B
:101C9C0095121B8CFB121B8CFA121B8CF94A4B7085
:101CAC000679A97A1E7BFF20022EE570602A7E0041
:101CBC008E82758300120FEC60060EEE657170F06B
:101CCC00C2D5EBC0E0EAC0E0E9C0E0EE121E1FD0C6
:101CDC00E0F9D0E0FAD0E0FB120FD3FF60AAEBC022
:101CEC00E0EAC0E0E9C0E0121BC7D0E02401F9D063
:101CFC00E03400FAD0E0FBE5710460DCD571D980EA
:101D0C00877BFF7A1E791BD202809C791080027926
:101D1C0008C206C2088008D2D5790A8004790AC2A2
:101D2C00D5E571047002F571E4FAFDFEFF121B8C0F
:101D3C00FC7B08200113121B8CFD7B1030000A1257
:101D4C001B8CFE121B8CFF7B20EC3382D592D55062
:101D5C0013C3E43000069FFFE49EFEE42001039DC4
:101D6C00FDE49CFCE4CBF8C201EC700CCFCECDCCE6
:101D7C00E824F8F870F38017C3EF33FFEE33FEED71
:101D8C0033FDEC33FCEB33FB994002FB0FD8E9EB52
:101D9C00300105F8D0E0C448B201C0E00AEC4D4E69
:101DAC004F78207B0070C2EAB5710040BCC0E012D5
:101DBC001E21D0F0D0E0200104C4C0E0C4B201C0A8
:101DCC00F0121BB0D0F0D5F0EB021C001213D41C97
:101DDC009D531D17581C6E4C1C6A421D1B4F1D2316
:101DEC00441D23491C83431D29551D0D461D0D45BE
:101DFC001D0D471EC9501C722D1C762E1C992B1CB8
:101E0C007A231C97201EB72A1C324800001C913FD5
:101E1C003F3F00790AA2D5200314300509B91002FE
:101E2C000404B9080104A2D52006025001042002C2
:051E3C00689202B57080
:101E4100005034C0E07F203003197F30A2027206B7
:101E51007205500F121E78C202C206C205C2087F67
:101E610030800F300503E9C0E0121BC7300503D0F5
:101E7100E0F9D0E0B570CC3005177F30B9100C1205
:101E81001BC77F583004077F788003B90803121BF2
:101E9100C73002057F2D021BC77F202008F87F2B4A
:101EA1002006F322920280CF286E756C6C29002DDA
:101EB10050434958D201121B8C3001F8C20178708D
:101EC10030D50108F6021C32121B8C2403B4050024
:101ED1004001E4901EB093121BB8743A121BB8D2A1
:071EE10003757004021D17D8
:103AC10010090B123AFABF0D027F0A0239CEAF0973
:013AD10022D2
:103222008B4B8A4C894DAB4BAA4CA94D120FD3FF45
:10323200123AAE500D7401254DF54DE4354CF54C66
:1032420080E4D200AB4BAA4CA94D120FD3FF642BE2
:103252006004EFB42D1BAB4B054DE54DAA4C70023B
:10326200054C14F9120FD3642D6003D38001C3926D
:1032720000E4F551F550F54FF54EAB4BAA4CA94D74
:10328200120FD3FF123AD2505CE47F0AFEFDFCAB70
:1032920051AA50A94FA84E12113AC8ECC8EDC0E08D
:1032A200EEC0E0EFC0E0AB4BAA4CA94D120FD3FF2A
:1032B2003395E0FEEF24D0FFEE34FFFEE4FCFDD0B8
:1032C200E0FBD0E0FAD0E0F9EB2FF551EA3EF55001
:1032D200ED39F54FEC38F54E7401254DF54DE435D9
:1032E2004CF54C809530000AAF51AE50AD4FAC4E0C
:0E32F200800BAF51AE50AD4FAC4E12133422D4
:0E133400C3E49FFFE49EFEE49DFDE49CFC22CA
:0C134200E0FCA3E0FDA3E0FEA3E0FF221E
:0C134E00E2FC08E2FD08E2FE08E2FF22DB
:10135A00E493FC740193FD740293FE740393FF22D9
:0D136A00E6FB08E6F908E6FA08E6CBF822F3
:0C137700E0F8A3E0F9A3E0FAA3E0FB22F9
:0D138300E2FB08E2F908E2FA08E2CBF822EA
:10139000E493F8740193F9740293FA740393FB22B3
:0C13A000ECF608EDF608EEF608EFF62279
:0C13AC00ECF0A3EDF0A3EEF0A3EFF022B4
:0C13B800ECF208EDF208EEF208EFF22271
:1013C400FAE6FB0808E6F925F0F618E6CA3AF6222A
:1013D400D083D082F8E4937012740193700DA3A3A8
:1013E40093F8740193F5828883E4737402936860BC
:0613F400EFA3A3A380DFBC
:0A3AFA003098FDAF99C2987E0022BB
:0F3AD200EFC394304007EF943A50028001C322B3
:103AAE00EFC394094005EF940E4003BF2003D3806B
:033ABE0001C3221F
:00000001FF
